{
    "_format": "hh-sol-artifact-1",
    "contractName": "MinimalForwarder2",
    "sourceName": "contracts/MinimalForwarder.sol",
    "abi": [
        {
            "inputs": [],
            "stateMutability": "nonpayable",
            "type": "constructor"
        },
        {
            "inputs": [
                {
                    "components": [
                        {
                            "internalType": "address",
                            "name": "from",
                            "type": "address"
                        },
                        {
                            "internalType": "address",
                            "name": "to",
                            "type": "address"
                        },
                        {
                            "internalType": "uint256",
                            "name": "value",
                            "type": "uint256"
                        },
                        {
                            "internalType": "uint256",
                            "name": "gas",
                            "type": "uint256"
                        },
                        {
                            "internalType": "uint256",
                            "name": "nonce",
                            "type": "uint256"
                        },
                        {
                            "internalType": "bytes",
                            "name": "data",
                            "type": "bytes"
                        }
                    ],
                    "internalType": "struct MinimalForwarder2.ForwardRequest",
                    "name": "req",
                    "type": "tuple"
                },
                {
                    "internalType": "bytes",
                    "name": "signature",
                    "type": "bytes"
                }
            ],
            "name": "execute",
            "outputs": [
                {
                    "internalType": "bool",
                    "name": "",
                    "type": "bool"
                },
                {
                    "internalType": "bytes",
                    "name": "",
                    "type": "bytes"
                }
            ],
            "stateMutability": "payable",
            "type": "function"
        },
        {
            "inputs": [],
            "name": "getBalance",
            "outputs": [
                {
                    "internalType": "uint256",
                    "name": "",
                    "type": "uint256"
                }
            ],
            "stateMutability": "view",
            "type": "function"
        },
        {
            "inputs": [
                {
                    "internalType": "address",
                    "name": "from",
                    "type": "address"
                }
            ],
            "name": "getNonce",
            "outputs": [
                {
                    "internalType": "uint256",
                    "name": "",
                    "type": "uint256"
                }
            ],
            "stateMutability": "view",
            "type": "function"
        },
        {
            "inputs": [
                {
                    "components": [
                        {
                            "internalType": "address",
                            "name": "from",
                            "type": "address"
                        },
                        {
                            "internalType": "address",
                            "name": "to",
                            "type": "address"
                        },
                        {
                            "internalType": "uint256",
                            "name": "value",
                            "type": "uint256"
                        },
                        {
                            "internalType": "uint256",
                            "name": "gas",
                            "type": "uint256"
                        },
                        {
                            "internalType": "uint256",
                            "name": "nonce",
                            "type": "uint256"
                        },
                        {
                            "internalType": "bytes",
                            "name": "data",
                            "type": "bytes"
                        }
                    ],
                    "internalType": "struct MinimalForwarder2.ForwardRequest[]",
                    "name": "req",
                    "type": "tuple[]"
                },
                {
                    "internalType": "bytes[]",
                    "name": "signature",
                    "type": "bytes[]"
                }
            ],
            "name": "relayBatch",
            "outputs": [
                {
                    "internalType": "bool",
                    "name": "",
                    "type": "bool"
                },
                {
                    "internalType": "bytes",
                    "name": "",
                    "type": "bytes"
                }
            ],
            "stateMutability": "payable",
            "type": "function"
        },
        {
            "inputs": [
                {
                    "components": [
                        {
                            "internalType": "address",
                            "name": "from",
                            "type": "address"
                        },
                        {
                            "internalType": "address",
                            "name": "to",
                            "type": "address"
                        },
                        {
                            "internalType": "uint256",
                            "name": "value",
                            "type": "uint256"
                        },
                        {
                            "internalType": "uint256",
                            "name": "gas",
                            "type": "uint256"
                        },
                        {
                            "internalType": "uint256",
                            "name": "nonce",
                            "type": "uint256"
                        },
                        {
                            "internalType": "bytes",
                            "name": "data",
                            "type": "bytes"
                        }
                    ],
                    "internalType": "struct MinimalForwarder2.ForwardRequest",
                    "name": "req",
                    "type": "tuple"
                },
                {
                    "internalType": "bytes",
                    "name": "signature",
                    "type": "bytes"
                }
            ],
            "name": "verify",
            "outputs": [
                {
                    "internalType": "bool",
                    "name": "",
                    "type": "bool"
                }
            ],
            "stateMutability": "view",
            "type": "function"
        }
    ],
    "bytecode": "0x6101406040523480156200001257600080fd5b506040518060400160405280601081526020017f4d696e696d616c466f72776172646572000000000000000000000000000000008152506040518060400160405280600581526020017f302e302e3100000000000000000000000000000000000000000000000000000081525060008280519060200120905060008280519060200120905060007f8b73c3c69bb8fe3d512ecc4cf759cc79239f7b179b0ffacaa9a75d522b39400f90508260e081815250508161010081815250504660a08181525050620000e88184846200013760201b60201c565b608081815250503073ffffffffffffffffffffffffffffffffffffffff1660c08173ffffffffffffffffffffffffffffffffffffffff168152505080610120818152505050505050506200024b565b6000838383463060405160200162000154959493929190620001ee565b6040516020818303038152906040528051906020012090509392505050565b6000819050919050565b620001888162000173565b82525050565b6000819050919050565b620001a3816200018e565b82525050565b600073ffffffffffffffffffffffffffffffffffffffff82169050919050565b6000620001d682620001a9565b9050919050565b620001e881620001c9565b82525050565b600060a0820190506200020560008301886200017d565b6200021460208301876200017d565b6200022360408301866200017d565b62000232606083018562000198565b620002416080830184620001dd565b9695505050505050565b60805160a05160c05160e051610100516101205161177b6200029b60003960006106ba015260006106fc015260006106db01526000610610015260006106660152600061068f015261177b6000f3fe60806040526004361061004a5760003560e01c806312065fe01461004f5780632d0335ab1461007a57806347153f82146100b75780635fb62ae8146100e8578063bf5d3bdb14610119575b600080fd5b34801561005b57600080fd5b50610064610156565b6040516100719190610b70565b60405180910390f35b34801561008657600080fd5b506100a1600480360381019061009c9190610bf3565b61015e565b6040516100ae9190610b70565b60405180910390f35b6100d160048036038101906100cc9190610ca9565b6101a6565b6040516100df929190610dd9565b60405180910390f35b61010260048036038101906100fd9190610eb5565b610351565b604051610110929190610dd9565b60405180910390f35b34801561012557600080fd5b50610140600480360381019061013b9190610ca9565b610416565b60405161014d9190610f36565b60405180910390f35b600047905090565b60008060008373ffffffffffffffffffffffffffffffffffffffff1673ffffffffffffffffffffffffffffffffffffffff168152602001908152602001600020549050919050565b600060606101b5858585610416565b6101f4576040517f08c379a00000000000000000000000000000000000000000000000000000000081526004016101eb90610fd4565b60405180910390fd5b600185608001356102059190611023565b60008087600001602081019061021b9190610bf3565b73ffffffffffffffffffffffffffffffffffffffff1673ffffffffffffffffffffffffffffffffffffffff1681526020019081526020016000208190555060008086602001602081019061026f9190610bf3565b73ffffffffffffffffffffffffffffffffffffffff1687606001358860400135898060a0019061029f9190611088565b8b60000160208101906102b29190610bf3565b6040516020016102c493929190611172565b6040516020818303038152906040526040516102e091906111cd565b600060405180830381858888f193505050503d806000811461031e576040519150601f19603f3d011682016040523d82523d6000602084013e610323565b606091505b5091509150603f87606001356103399190611213565b5a1161034157fe5b8181935093505050935093915050565b6000606083839050868690501461039d576040517f08c379a000000000000000000000000000000000000000000000000000000000815260040161039490611290565b60405180910390fd5b60005b8484905081101561040c576103fd8787838181106103c1576103c06112b0565b5b90506020028101906103d391906112df565b8686848181106103e6576103e56112b0565b5b90506020028101906103f89190611088565b6101a6565b505080806001019150506103a0565b5094509492505050565b60008061051f84848080601f016020809104026020016040519081016040528093929190818152602001838380828437600081840152601f19601f820116905080830192505050505050506105117fdd8f4b70b0f4393e889bd39128a30628a78b61816a9eb8199759e7a349657e488860000160208101906104989190610bf3565b8960200160208101906104ab9190610bf3565b8a604001358b606001358c608001358d8060a001906104ca9190611088565b6040516104d8929190611307565b60405180910390206040516020016104f69796959493929190611348565b604051602081830303815290604052805190602001206105cb565b6105e590919063ffffffff16565b9050846080013560008087600001602081019061053c9190610bf3565b73ffffffffffffffffffffffffffffffffffffffff1673ffffffffffffffffffffffffffffffffffffffff168152602001908152602001600020541480156105c157508460000160208101906105929190610bf3565b73ffffffffffffffffffffffffffffffffffffffff168173ffffffffffffffffffffffffffffffffffffffff16145b9150509392505050565b60006105de6105d861060c565b83610726565b9050919050565b60008060006105f48585610759565b91509150610601816107dc565b819250505092915050565b60007f000000000000000000000000000000000000000000000000000000000000000073ffffffffffffffffffffffffffffffffffffffff163073ffffffffffffffffffffffffffffffffffffffff1614801561068857507f000000000000000000000000000000000000000000000000000000000000000046145b156106b5577f00000000000000000000000000000000000000000000000000000000000000009050610723565b6107207f00000000000000000000000000000000000000000000000000000000000000007f00000000000000000000000000000000000000000000000000000000000000007f00000000000000000000000000000000000000000000000000000000000000006109b1565b90505b90565b6000828260405160200161073b92919061142f565b60405160208183030381529060405280519060200120905092915050565b60008060418351141561079b5760008060006020860151925060408601519150606086015160001a905061078f878285856109eb565b945094505050506107d5565b6040835114156107cc5760008060208501519150604085015190506107c1868383610af8565b9350935050506107d5565b60006002915091505b9250929050565b600060048111156107f0576107ef611466565b5b81600481111561080357610802611466565b5b141561080e576109ae565b6001600481111561082257610821611466565b5b81600481111561083557610834611466565b5b1415610876576040517f08c379a000000000000000000000000000000000000000000000000000000000815260040161086d906114e1565b60405180910390fd5b6002600481111561088a57610889611466565b5b81600481111561089d5761089c611466565b5b14156108de576040517f08c379a00000000000000000000000000000000000000000000000000000000081526004016108d59061154d565b60405180910390fd5b600360048111156108f2576108f1611466565b5b81600481111561090557610904611466565b5b1415610946576040517f08c379a000000000000000000000000000000000000000000000000000000000815260040161093d906115df565b60405180910390fd5b60048081111561095957610958611466565b5b81600481111561096c5761096b611466565b5b14156109ad576040517f08c379a00000000000000000000000000000000000000000000000000000000081526004016109a490611671565b60405180910390fd5b5b50565b600083838346306040516020016109cc959493929190611691565b6040516020818303038152906040528051906020012090509392505050565b6000807f7fffffffffffffffffffffffffffffff5d576e7357a4501ddfe92f46681b20a08360001c1115610a26576000600391509150610aef565b601b8560ff1614158015610a3e5750601c8560ff1614155b15610a50576000600491509150610aef565b600060018787878760405160008152602001604052604051610a759493929190611700565b6020604051602081039080840390855afa158015610a97573d6000803e3d6000fd5b505050602060405103519050600073ffffffffffffffffffffffffffffffffffffffff168173ffffffffffffffffffffffffffffffffffffffff161415610ae657600060019250925050610aef565b80600092509250505b94509492505050565b60008060007f7fffffffffffffffffffffffffffffffffffffffffffffffffffffffffffffff60001b841690506000601b60ff8660001c901c610b3b9190611023565b9050610b49878288856109eb565b935093505050935093915050565b6000819050919050565b610b6a81610b57565b82525050565b6000602082019050610b856000830184610b61565b92915050565b600080fd5b600080fd5b600073ffffffffffffffffffffffffffffffffffffffff82169050919050565b6000610bc082610b95565b9050919050565b610bd081610bb5565b8114610bdb57600080fd5b50565b600081359050610bed81610bc7565b92915050565b600060208284031215610c0957610c08610b8b565b5b6000610c1784828501610bde565b91505092915050565b600080fd5b600060c08284031215610c3b57610c3a610c20565b5b81905092915050565b600080fd5b600080fd5b600080fd5b60008083601f840112610c6957610c68610c44565b5b8235905067ffffffffffffffff811115610c8657610c85610c49565b5b602083019150836001820283011115610ca257610ca1610c4e565b5b9250929050565b600080600060408486031215610cc257610cc1610b8b565b5b600084013567ffffffffffffffff811115610ce057610cdf610b90565b5b610cec86828701610c25565b935050602084013567ffffffffffffffff811115610d0d57610d0c610b90565b5b610d1986828701610c53565b92509250509250925092565b60008115159050919050565b610d3a81610d25565b82525050565b600081519050919050565b600082825260208201905092915050565b60005b83811015610d7a578082015181840152602081019050610d5f565b83811115610d89576000848401525b50505050565b6000601f19601f8301169050919050565b6000610dab82610d40565b610db58185610d4b565b9350610dc5818560208601610d5c565b610dce81610d8f565b840191505092915050565b6000604082019050610dee6000830185610d31565b8181036020830152610e008184610da0565b90509392505050565b60008083601f840112610e1f57610e1e610c44565b5b8235905067ffffffffffffffff811115610e3c57610e3b610c49565b5b602083019150836020820283011115610e5857610e57610c4e565b5b9250929050565b60008083601f840112610e7557610e74610c44565b5b8235905067ffffffffffffffff811115610e9257610e91610c49565b5b602083019150836020820283011115610eae57610ead610c4e565b5b9250929050565b60008060008060408587031215610ecf57610ece610b8b565b5b600085013567ffffffffffffffff811115610eed57610eec610b90565b5b610ef987828801610e09565b9450945050602085013567ffffffffffffffff811115610f1c57610f1b610b90565b5b610f2887828801610e5f565b925092505092959194509250565b6000602082019050610f4b6000830184610d31565b92915050565b600082825260208201905092915050565b7f4d696e696d616c466f727761726465723a207369676e617475726520646f657360008201527f206e6f74206d6174636820726571756573740000000000000000000000000000602082015250565b6000610fbe603283610f51565b9150610fc982610f62565b604082019050919050565b60006020820190508181036000830152610fed81610fb1565b9050919050565b7f4e487b7100000000000000000000000000000000000000000000000000000000600052601160045260246000fd5b600061102e82610b57565b915061103983610b57565b9250827fffffffffffffffffffffffffffffffffffffffffffffffffffffffffffffffff0382111561106e5761106d610ff4565b5b828201905092915050565b600080fd5b600080fd5b600080fd5b600080833560016020038436030381126110a5576110a4611079565b5b80840192508235915067ffffffffffffffff8211156110c7576110c661107e565b5b6020830192506001820236038313156110e3576110e2611083565b5b509250929050565b600081905092915050565b82818337600083830152505050565b600061111183856110eb565b935061111e8385846110f6565b82840190509392505050565b60008160601b9050919050565b60006111428261112a565b9050919050565b600061115482611137565b9050919050565b61116c61116782610bb5565b611149565b82525050565b600061117f828587611105565b915061118b828461115b565b601482019150819050949350505050565b60006111a782610d40565b6111b181856110eb565b93506111c1818560208601610d5c565b80840191505092915050565b60006111d9828461119c565b915081905092915050565b7f4e487b7100000000000000000000000000000000000000000000000000000000600052601260045260246000fd5b600061121e82610b57565b915061122983610b57565b925082611239576112386111e4565b5b828204905092915050565b7f5800000000000000000000000000000000000000000000000000000000000000600082015250565b600061127a600183610f51565b915061128582611244565b602082019050919050565b600060208201905081810360008301526112a98161126d565b9050919050565b7f4e487b7100000000000000000000000000000000000000000000000000000000600052603260045260246000fd5b60008235600160c0038336030381126112fb576112fa611079565b5b80830191505092915050565b6000611314828486611105565b91508190509392505050565b6000819050919050565b61133381611320565b82525050565b61134281610bb5565b82525050565b600060e08201905061135d600083018a61132a565b61136a6020830189611339565b6113776040830188611339565b6113846060830187610b61565b6113916080830186610b61565b61139e60a0830185610b61565b6113ab60c083018461132a565b98975050505050505050565b600081905092915050565b7f1901000000000000000000000000000000000000000000000000000000000000600082015250565b60006113f86002836113b7565b9150611403826113c2565b600282019050919050565b6000819050919050565b61142961142482611320565b61140e565b82525050565b600061143a826113eb565b91506114468285611418565b6020820191506114568284611418565b6020820191508190509392505050565b7f4e487b7100000000000000000000000000000000000000000000000000000000600052602160045260246000fd5b7f45434453413a20696e76616c6964207369676e61747572650000000000000000600082015250565b60006114cb601883610f51565b91506114d682611495565b602082019050919050565b600060208201905081810360008301526114fa816114be565b9050919050565b7f45434453413a20696e76616c6964207369676e6174757265206c656e67746800600082015250565b6000611537601f83610f51565b915061154282611501565b602082019050919050565b600060208201905081810360008301526115668161152a565b9050919050565b7f45434453413a20696e76616c6964207369676e6174757265202773272076616c60008201527f7565000000000000000000000000000000000000000000000000000000000000602082015250565b60006115c9602283610f51565b91506115d48261156d565b604082019050919050565b600060208201905081810360008301526115f8816115bc565b9050919050565b7f45434453413a20696e76616c6964207369676e6174757265202776272076616c60008201527f7565000000000000000000000000000000000000000000000000000000000000602082015250565b600061165b602283610f51565b9150611666826115ff565b604082019050919050565b6000602082019050818103600083015261168a8161164e565b9050919050565b600060a0820190506116a6600083018861132a565b6116b3602083018761132a565b6116c0604083018661132a565b6116cd6060830185610b61565b6116da6080830184611339565b9695505050505050565b600060ff82169050919050565b6116fa816116e4565b82525050565b6000608082019050611715600083018761132a565b61172260208301866116f1565b61172f604083018561132a565b61173c606083018461132a565b9594505050505056fea2646970667358221220e9d7f953531d78ce63c430486e65ead8ad0474813b141aed422c87abfd00cf8f64736f6c63430008090033",
    "linkReferences": {},
    "deployedLinkReferences": {}
}