{
    "_format": "hh-sol-artifact-1",
    "contractName": "Registry",
    "sourceName": "contracts/SimpleRegistry.sol",
    "abi": [
        {
            "inputs": [
                {
                    "internalType": "contract MinimalForwarder",
                    "name": "forwarder",
                    "type": "address"
                }
            ],
            "stateMutability": "nonpayable",
            "type": "constructor"
        },
        {
            "anonymous": false,
            "inputs": [
                {
                    "indexed": true,
                    "internalType": "address",
                    "name": "who",
                    "type": "address"
                },
                {
                    "indexed": false,
                    "internalType": "string",
                    "name": "name",
                    "type": "string"
                }
            ],
            "name": "Registered",
            "type": "event"
        },
        {
            "inputs": [
                {
                    "internalType": "address",
                    "name": "forwarder",
                    "type": "address"
                }
            ],
            "name": "isTrustedForwarder",
            "outputs": [
                {
                    "internalType": "bool",
                    "name": "",
                    "type": "bool"
                }
            ],
            "stateMutability": "view",
            "type": "function"
        },
        {
            "inputs": [
                {
                    "internalType": "address",
                    "name": "",
                    "type": "address"
                }
            ],
            "name": "names",
            "outputs": [
                {
                    "internalType": "string",
                    "name": "",
                    "type": "string"
                }
            ],
            "stateMutability": "view",
            "type": "function"
        },
        {
            "inputs": [
                {
                    "internalType": "string",
                    "name": "",
                    "type": "string"
                }
            ],
            "name": "owners",
            "outputs": [
                {
                    "internalType": "address",
                    "name": "",
                    "type": "address"
                }
            ],
            "stateMutability": "view",
            "type": "function"
        },
        {
            "inputs": [
                {
                    "internalType": "string",
                    "name": "name",
                    "type": "string"
                }
            ],
            "name": "register",
            "outputs": [],
            "stateMutability": "nonpayable",
            "type": "function"
        }
    ],
    "bytecode": "0x60a060405234801561001057600080fd5b50604051610a8f380380610a8f833981810160405281019061003291906100e3565b808073ffffffffffffffffffffffffffffffffffffffff1660808173ffffffffffffffffffffffffffffffffffffffff16815250505050610110565b600080fd5b600073ffffffffffffffffffffffffffffffffffffffff82169050919050565b600061009e82610073565b9050919050565b60006100b082610093565b9050919050565b6100c0816100a5565b81146100cb57600080fd5b50565b6000815190506100dd816100b7565b92915050565b6000602082840312156100f9576100f861006e565b5b6000610107848285016100ce565b91505092915050565b60805161096461012b600039600061014a01526109646000f3fe608060405234801561001057600080fd5b506004361061004c5760003560e01c80632b1fd99514610051578063572b6c05146100815780635cf3d346146100b1578063f2c298be146100e1575b600080fd5b61006b60048036038101906100669190610630565b6100fd565b60405161007891906106ba565b60405180910390f35b61009b60048036038101906100969190610701565b610146565b6040516100a89190610749565b60405180910390f35b6100cb60048036038101906100c69190610701565b61019e565b6040516100d891906107ec565b60405180910390f35b6100fb60048036038101906100f69190610630565b61023e565b005b6001818051602081018201805184825260208301602085012081835280955050505050506000915054906101000a900473ffffffffffffffffffffffffffffffffffffffff1681565b60007f000000000000000000000000000000000000000000000000000000000000000073ffffffffffffffffffffffffffffffffffffffff168273ffffffffffffffffffffffffffffffffffffffff16149050919050565b600060205280600052604060002060009150905080546101bd9061083d565b80601f01602080910402602001604051908101604052809291908181526020018280546101e99061083d565b80156102365780601f1061020b57610100808354040283529160200191610236565b820191906000526020600020905b81548152906001019060200180831161021957829003601f168201915b505050505081565b600073ffffffffffffffffffffffffffffffffffffffff1660018260405161026691906108ab565b908152602001604051809103902060009054906101000a900473ffffffffffffffffffffffffffffffffffffffff1673ffffffffffffffffffffffffffffffffffffffff16146102eb576040517f08c379a00000000000000000000000000000000000000000000000000000000081526004016102e29061090e565b60405180910390fd5b60006102f56103f9565b90508060018360405161030891906108ab565b908152602001604051809103902060006101000a81548173ffffffffffffffffffffffffffffffffffffffff021916908373ffffffffffffffffffffffffffffffffffffffff160217905550816000808373ffffffffffffffffffffffffffffffffffffffff1673ffffffffffffffffffffffffffffffffffffffff16815260200190815260200160002090805190602001906103a6929190610433565b508073ffffffffffffffffffffffffffffffffffffffff167fb3eccf73f39b1c07947c780b2b39df2a1bb058b4037b0a42d0881ca1a028a132836040516103ed91906107ec565b60405180910390a25050565b600061040433610146565b1561041857601436033560601c9050610427565b61042061042b565b9050610428565b5b90565b600033905090565b82805461043f9061083d565b90600052602060002090601f01602090048101928261046157600085556104a8565b82601f1061047a57805160ff19168380011785556104a8565b828001600101855582156104a8579182015b828111156104a757825182559160200191906001019061048c565b5b5090506104b591906104b9565b5090565b5b808211156104d25760008160009055506001016104ba565b5090565b6000604051905090565b600080fd5b600080fd5b600080fd5b600080fd5b6000601f19601f8301169050919050565b7f4e487b7100000000000000000000000000000000000000000000000000000000600052604160045260246000fd5b61053d826104f4565b810181811067ffffffffffffffff8211171561055c5761055b610505565b5b80604052505050565b600061056f6104d6565b905061057b8282610534565b919050565b600067ffffffffffffffff82111561059b5761059a610505565b5b6105a4826104f4565b9050602081019050919050565b82818337600083830152505050565b60006105d36105ce84610580565b610565565b9050828152602081018484840111156105ef576105ee6104ef565b5b6105fa8482856105b1565b509392505050565b600082601f830112610617576106166104ea565b5b81356106278482602086016105c0565b91505092915050565b600060208284031215610646576106456104e0565b5b600082013567ffffffffffffffff811115610664576106636104e5565b5b61067084828501610602565b91505092915050565b600073ffffffffffffffffffffffffffffffffffffffff82169050919050565b60006106a482610679565b9050919050565b6106b481610699565b82525050565b60006020820190506106cf60008301846106ab565b92915050565b6106de81610699565b81146106e957600080fd5b50565b6000813590506106fb816106d5565b92915050565b600060208284031215610717576107166104e0565b5b6000610725848285016106ec565b91505092915050565b60008115159050919050565b6107438161072e565b82525050565b600060208201905061075e600083018461073a565b92915050565b600081519050919050565b600082825260208201905092915050565b60005b8381101561079e578082015181840152602081019050610783565b838111156107ad576000848401525b50505050565b60006107be82610764565b6107c8818561076f565b93506107d8818560208601610780565b6107e1816104f4565b840191505092915050565b6000602082019050818103600083015261080681846107b3565b905092915050565b7f4e487b7100000000000000000000000000000000000000000000000000000000600052602260045260246000fd5b6000600282049050600182168061085557607f821691505b602082108114156108695761086861080e565b5b50919050565b600081905092915050565b600061088582610764565b61088f818561086f565b935061089f818560208601610780565b80840191505092915050565b60006108b7828461087a565b915081905092915050565b7f4e616d652074616b656e00000000000000000000000000000000000000000000600082015250565b60006108f8600a8361076f565b9150610903826108c2565b602082019050919050565b60006020820190508181036000830152610927816108eb565b905091905056fea2646970667358221220fcc08587ce00d0e1b1ff39ee4b3959740f41ab7d465c532bfd35cf5cde8e7b0364736f6c63430008090033",
    "linkReferences": {},
    "deployedLinkReferences": {}
}