{
    "_format": "hh-sol-artifact-1",
    "contractName": "MyToken",
    "sourceName": "contracts/ERC20.sol",
    "abi": [
        {
            "inputs": [
                {
                    "internalType": "string",
                    "name": "name_",
                    "type": "string"
                },
                {
                    "internalType": "string",
                    "name": "symbol_",
                    "type": "string"
                },
                {
                    "internalType": "contract MinimalForwarder",
                    "name": "forwarder",
                    "type": "address"
                }
            ],
            "stateMutability": "nonpayable",
            "type": "constructor"
        },
        {
            "anonymous": false,
            "inputs": [
                {
                    "indexed": true,
                    "internalType": "address",
                    "name": "owner",
                    "type": "address"
                },
                {
                    "indexed": true,
                    "internalType": "address",
                    "name": "spender",
                    "type": "address"
                },
                {
                    "indexed": false,
                    "internalType": "uint256",
                    "name": "value",
                    "type": "uint256"
                }
            ],
            "name": "Approval",
            "type": "event"
        },
        {
            "anonymous": false,
            "inputs": [
                {
                    "indexed": true,
                    "internalType": "address",
                    "name": "from",
                    "type": "address"
                },
                {
                    "indexed": true,
                    "internalType": "address",
                    "name": "to",
                    "type": "address"
                },
                {
                    "indexed": false,
                    "internalType": "uint256",
                    "name": "value",
                    "type": "uint256"
                }
            ],
            "name": "Transfer",
            "type": "event"
        },
        {
            "inputs": [
                {
                    "internalType": "address",
                    "name": "owner",
                    "type": "address"
                },
                {
                    "internalType": "address",
                    "name": "spender",
                    "type": "address"
                }
            ],
            "name": "allowance",
            "outputs": [
                {
                    "internalType": "uint256",
                    "name": "",
                    "type": "uint256"
                }
            ],
            "stateMutability": "view",
            "type": "function"
        },
        {
            "inputs": [
                {
                    "internalType": "address",
                    "name": "spender",
                    "type": "address"
                },
                {
                    "internalType": "uint256",
                    "name": "amount",
                    "type": "uint256"
                }
            ],
            "name": "approve",
            "outputs": [
                {
                    "internalType": "bool",
                    "name": "",
                    "type": "bool"
                }
            ],
            "stateMutability": "nonpayable",
            "type": "function"
        },
        {
            "inputs": [
                {
                    "internalType": "address",
                    "name": "account",
                    "type": "address"
                }
            ],
            "name": "balanceOf",
            "outputs": [
                {
                    "internalType": "uint256",
                    "name": "",
                    "type": "uint256"
                }
            ],
            "stateMutability": "view",
            "type": "function"
        },
        {
            "inputs": [],
            "name": "decimals",
            "outputs": [
                {
                    "internalType": "uint8",
                    "name": "",
                    "type": "uint8"
                }
            ],
            "stateMutability": "view",
            "type": "function"
        },
        {
            "inputs": [
                {
                    "internalType": "address",
                    "name": "spender",
                    "type": "address"
                },
                {
                    "internalType": "uint256",
                    "name": "subtractedValue",
                    "type": "uint256"
                }
            ],
            "name": "decreaseAllowance",
            "outputs": [
                {
                    "internalType": "bool",
                    "name": "",
                    "type": "bool"
                }
            ],
            "stateMutability": "nonpayable",
            "type": "function"
        },
        {
            "inputs": [
                {
                    "internalType": "address",
                    "name": "spender",
                    "type": "address"
                },
                {
                    "internalType": "uint256",
                    "name": "addedValue",
                    "type": "uint256"
                }
            ],
            "name": "increaseAllowance",
            "outputs": [
                {
                    "internalType": "bool",
                    "name": "",
                    "type": "bool"
                }
            ],
            "stateMutability": "nonpayable",
            "type": "function"
        },
        {
            "inputs": [
                {
                    "internalType": "address",
                    "name": "forwarder",
                    "type": "address"
                }
            ],
            "name": "isTrustedForwarder",
            "outputs": [
                {
                    "internalType": "bool",
                    "name": "",
                    "type": "bool"
                }
            ],
            "stateMutability": "view",
            "type": "function"
        },
        {
            "inputs": [
                {
                    "internalType": "address",
                    "name": "to",
                    "type": "address"
                },
                {
                    "internalType": "uint256",
                    "name": "amount",
                    "type": "uint256"
                }
            ],
            "name": "mint",
            "outputs": [],
            "stateMutability": "nonpayable",
            "type": "function"
        },
        {
            "inputs": [],
            "name": "name",
            "outputs": [
                {
                    "internalType": "string",
                    "name": "",
                    "type": "string"
                }
            ],
            "stateMutability": "view",
            "type": "function"
        },
        {
            "inputs": [],
            "name": "symbol",
            "outputs": [
                {
                    "internalType": "string",
                    "name": "",
                    "type": "string"
                }
            ],
            "stateMutability": "view",
            "type": "function"
        },
        {
            "inputs": [],
            "name": "totalSupply",
            "outputs": [
                {
                    "internalType": "uint256",
                    "name": "",
                    "type": "uint256"
                }
            ],
            "stateMutability": "view",
            "type": "function"
        },
        {
            "inputs": [
                {
                    "internalType": "address",
                    "name": "to",
                    "type": "address"
                },
                {
                    "internalType": "uint256",
                    "name": "amount",
                    "type": "uint256"
                }
            ],
            "name": "transfer",
            "outputs": [
                {
                    "internalType": "bool",
                    "name": "",
                    "type": "bool"
                }
            ],
            "stateMutability": "nonpayable",
            "type": "function"
        },
        {
            "inputs": [
                {
                    "internalType": "address",
                    "name": "from",
                    "type": "address"
                },
                {
                    "internalType": "address",
                    "name": "to",
                    "type": "address"
                },
                {
                    "internalType": "uint256",
                    "name": "amount",
                    "type": "uint256"
                }
            ],
            "name": "transferFrom",
            "outputs": [
                {
                    "internalType": "bool",
                    "name": "",
                    "type": "bool"
                }
            ],
            "stateMutability": "nonpayable",
            "type": "function"
        }
    ],
    "bytecode": "0x60a06040523480156200001157600080fd5b5060405162000d3d38038062000d3d8339810160408190526200003491620001e9565b6001600160a01b03811660805282516200005690600390602086019062000076565b5081516200006c90600490602085019062000076565b50505050620002b3565b828054620000849062000276565b90600052602060002090601f016020900481019282620000a85760008555620000f3565b82601f10620000c357805160ff1916838001178555620000f3565b82800160010185558215620000f3579182015b82811115620000f3578251825591602001919060010190620000d6565b506200010192915062000105565b5090565b5b8082111562000101576000815560010162000106565b634e487b7160e01b600052604160045260246000fd5b600082601f8301126200014457600080fd5b81516001600160401b03808211156200016157620001616200011c565b604051601f8301601f19908116603f011681019082821181831017156200018c576200018c6200011c565b81604052838152602092508683858801011115620001a957600080fd5b600091505b83821015620001cd5785820183015181830184015290820190620001ae565b83821115620001df5760008385830101525b9695505050505050565b600080600060608486031215620001ff57600080fd5b83516001600160401b03808211156200021757600080fd5b620002258783880162000132565b945060208601519150808211156200023c57600080fd5b506200024b8682870162000132565b604086015190935090506001600160a01b03811681146200026b57600080fd5b809150509250925092565b600181811c908216806200028b57607f821691505b60208210811415620002ad57634e487b7160e01b600052602260045260246000fd5b50919050565b608051610a67620002d66000396000818161018101526104180152610a676000f3fe608060405234801561001057600080fd5b50600436106100cf5760003560e01c806340c10f191161008c57806395d89b411161006657806395d89b41146101da578063a457c2d7146101e2578063a9059cbb146101f5578063dd62ed3e1461020857600080fd5b806340c10f191461015c578063572b6c051461017157806370a08231146101b157600080fd5b806306fdde03146100d4578063095ea7b3146100f257806318160ddd1461011557806323b872dd14610127578063313ce5671461013a5780633950935114610149575b600080fd5b6100dc61021b565b6040516100e991906108a4565b60405180910390f35b610105610100366004610915565b6102ad565b60405190151581526020016100e9565b6002545b6040519081526020016100e9565b61010561013536600461093f565b6102cf565b604051601281526020016100e9565b610105610157366004610915565b6102fd565b61016f61016a366004610915565b610329565b005b61010561017f36600461097b565b7f00000000000000000000000000000000000000000000000000000000000000006001600160a01b0390811691161490565b6101196101bf36600461097b565b6001600160a01b031660009081526020819052604090205490565b6100dc610337565b6101056101f0366004610915565b610346565b610105610203366004610915565b6103d1565b61011961021636600461099d565b6103e9565b60606003805461022a906109d0565b80601f0160208091040260200160405190810160405280929190818152602001828054610256906109d0565b80156102a35780601f10610278576101008083540402835291602001916102a3565b820191906000526020600020905b81548152906001019060200180831161028657829003601f168201915b5050505050905090565b6000806102b8610414565b90506102c5818585610459565b5060019392505050565b6000806102da610414565b90506102e785828561057d565b6102f28585856105f7565b506001949350505050565b600080610308610414565b90506102c581858561031a85896103e9565b6103249190610a0b565b610459565b61033382826107c5565b5050565b60606004805461022a906109d0565b600080610351610414565b9050600061035f82866103e9565b9050838110156103c45760405162461bcd60e51b815260206004820152602560248201527f45524332303a2064656372656173656420616c6c6f77616e63652062656c6f77604482015264207a65726f60d81b60648201526084015b60405180910390fd5b6102f28286868403610459565b6000806103dc610414565b90506102c58185856105f7565b6001600160a01b03918216600090815260016020908152604080832093909416825291909152205490565b60007f00000000000000000000000000000000000000000000000000000000000000006001600160a01b0316331415610454575060131936013560601c90565b503390565b6001600160a01b0383166104bb5760405162461bcd60e51b8152602060048201526024808201527f45524332303a20617070726f76652066726f6d20746865207a65726f206164646044820152637265737360e01b60648201526084016103bb565b6001600160a01b03821661051c5760405162461bcd60e51b815260206004820152602260248201527f45524332303a20617070726f766520746f20746865207a65726f206164647265604482015261737360f01b60648201526084016103bb565b6001600160a01b0383811660008181526001602090815260408083209487168084529482529182902085905590518481527f8c5be1e5ebec7d5bd14f71427d1e84f3dd0314c0f7b2291e5b200ac8c7c3b925910160405180910390a3505050565b600061058984846103e9565b905060001981146105f157818110156105e45760405162461bcd60e51b815260206004820152601d60248201527f45524332303a20696e73756666696369656e7420616c6c6f77616e636500000060448201526064016103bb565b6105f18484848403610459565b50505050565b6001600160a01b03831661065b5760405162461bcd60e51b815260206004820152602560248201527f45524332303a207472616e736665722066726f6d20746865207a65726f206164604482015264647265737360d81b60648201526084016103bb565b6001600160a01b0382166106bd5760405162461bcd60e51b815260206004820152602360248201527f45524332303a207472616e7366657220746f20746865207a65726f206164647260448201526265737360e81b60648201526084016103bb565b6001600160a01b038316600090815260208190526040902054818110156107355760405162461bcd60e51b815260206004820152602660248201527f45524332303a207472616e7366657220616d6f756e7420657863656564732062604482015265616c616e636560d01b60648201526084016103bb565b6001600160a01b0380851660009081526020819052604080822085850390559185168152908120805484929061076c908490610a0b565b92505081905550826001600160a01b0316846001600160a01b03167fddf252ad1be2c89b69c2b068fc378daa952ba7f163c4a11628f55a4df523b3ef846040516107b891815260200190565b60405180910390a36105f1565b6001600160a01b03821661081b5760405162461bcd60e51b815260206004820152601f60248201527f45524332303a206d696e7420746f20746865207a65726f20616464726573730060448201526064016103bb565b806002600082825461082d9190610a0b565b90915550506001600160a01b0382166000908152602081905260408120805483929061085a908490610a0b565b90915550506040518181526001600160a01b038316906000907fddf252ad1be2c89b69c2b068fc378daa952ba7f163c4a11628f55a4df523b3ef9060200160405180910390a35050565b600060208083528351808285015260005b818110156108d1578581018301518582016040015282016108b5565b818111156108e3576000604083870101525b50601f01601f1916929092016040019392505050565b80356001600160a01b038116811461091057600080fd5b919050565b6000806040838503121561092857600080fd5b610931836108f9565b946020939093013593505050565b60008060006060848603121561095457600080fd5b61095d846108f9565b925061096b602085016108f9565b9150604084013590509250925092565b60006020828403121561098d57600080fd5b610996826108f9565b9392505050565b600080604083850312156109b057600080fd5b6109b9836108f9565b91506109c7602084016108f9565b90509250929050565b600181811c908216806109e457607f821691505b60208210811415610a0557634e487b7160e01b600052602260045260246000fd5b50919050565b60008219821115610a2c57634e487b7160e01b600052601160045260246000fd5b50019056fea2646970667358221220206ad7b50355a5c0bbb67a75ac42004a316a4d2c7a3a83b55f4d0f9f47568c1064736f6c63430008090033",
    "linkReferences": {},
    "deployedLinkReferences": {}
}