{
    "_format": "hh-sol-artifact-1",
    "contractName": "MinimalForwarder2",
    "sourceName": "contracts/MinimalForwarder.sol",
    "abi": [
        {
            "inputs": [],
            "stateMutability": "nonpayable",
            "type": "constructor"
        },
        {
            "inputs": [
                {
                    "components": [
                        {
                            "internalType": "address",
                            "name": "from",
                            "type": "address"
                        },
                        {
                            "internalType": "address",
                            "name": "to",
                            "type": "address"
                        },
                        {
                            "internalType": "uint256",
                            "name": "value",
                            "type": "uint256"
                        },
                        {
                            "internalType": "uint256",
                            "name": "gas",
                            "type": "uint256"
                        },
                        {
                            "internalType": "uint256",
                            "name": "nonce",
                            "type": "uint256"
                        },
                        {
                            "internalType": "bytes",
                            "name": "data",
                            "type": "bytes"
                        }
                    ],
                    "internalType": "struct MinimalForwarder2.ForwardRequest",
                    "name": "req",
                    "type": "tuple"
                },
                {
                    "internalType": "bytes",
                    "name": "signature",
                    "type": "bytes"
                }
            ],
            "name": "execute",
            "outputs": [
                {
                    "internalType": "bool",
                    "name": "",
                    "type": "bool"
                },
                {
                    "internalType": "bytes",
                    "name": "",
                    "type": "bytes"
                }
            ],
            "stateMutability": "payable",
            "type": "function"
        },
        {
            "inputs": [],
            "name": "getBalance",
            "outputs": [
                {
                    "internalType": "uint256",
                    "name": "",
                    "type": "uint256"
                }
            ],
            "stateMutability": "view",
            "type": "function"
        },
        {
            "inputs": [
                {
                    "internalType": "address",
                    "name": "from",
                    "type": "address"
                }
            ],
            "name": "getNonce",
            "outputs": [
                {
                    "internalType": "uint256",
                    "name": "",
                    "type": "uint256"
                }
            ],
            "stateMutability": "view",
            "type": "function"
        },
        {
            "inputs": [
                {
                    "components": [
                        {
                            "internalType": "address",
                            "name": "from",
                            "type": "address"
                        },
                        {
                            "internalType": "address",
                            "name": "to",
                            "type": "address"
                        },
                        {
                            "internalType": "uint256",
                            "name": "value",
                            "type": "uint256"
                        },
                        {
                            "internalType": "uint256",
                            "name": "gas",
                            "type": "uint256"
                        },
                        {
                            "internalType": "uint256",
                            "name": "nonce",
                            "type": "uint256"
                        },
                        {
                            "internalType": "bytes",
                            "name": "data",
                            "type": "bytes"
                        }
                    ],
                    "internalType": "struct MinimalForwarder2.ForwardRequest[]",
                    "name": "req",
                    "type": "tuple[]"
                },
                {
                    "internalType": "bytes[]",
                    "name": "signature",
                    "type": "bytes[]"
                }
            ],
            "name": "relayBatch",
            "outputs": [
                {
                    "internalType": "bool",
                    "name": "",
                    "type": "bool"
                },
                {
                    "internalType": "bytes",
                    "name": "",
                    "type": "bytes"
                }
            ],
            "stateMutability": "payable",
            "type": "function"
        },
        {
            "inputs": [
                {
                    "components": [
                        {
                            "internalType": "address",
                            "name": "from",
                            "type": "address"
                        },
                        {
                            "internalType": "address",
                            "name": "to",
                            "type": "address"
                        },
                        {
                            "internalType": "uint256",
                            "name": "value",
                            "type": "uint256"
                        },
                        {
                            "internalType": "uint256",
                            "name": "gas",
                            "type": "uint256"
                        },
                        {
                            "internalType": "uint256",
                            "name": "nonce",
                            "type": "uint256"
                        },
                        {
                            "internalType": "bytes",
                            "name": "data",
                            "type": "bytes"
                        }
                    ],
                    "internalType": "struct MinimalForwarder2.ForwardRequest",
                    "name": "req",
                    "type": "tuple"
                },
                {
                    "internalType": "bytes",
                    "name": "signature",
                    "type": "bytes"
                }
            ],
            "name": "verify",
            "outputs": [
                {
                    "internalType": "bool",
                    "name": "",
                    "type": "bool"
                }
            ],
            "stateMutability": "view",
            "type": "function"
        }
    ],
    "bytecode": "0x61014060405234801561001157600080fd5b50604080518082018252601081526f26b4b734b6b0b62337b93bb0b93232b960811b602080830191825283518085019094526005845264302e302e3160d81b908401528151902060e08190527fae209a0b48f21c054280f2455d32cf309387644879d9acbd8ffc1991638118856101008190524660a0529192917f8b73c3c69bb8fe3d512ecc4cf759cc79239f7b179b0ffacaa9a75d522b39400f6100fb8184846040805160208101859052908101839052606081018290524660808201523060a082015260009060c0016040516020818303038152906040528051906020012090509392505050565b6080523060c052610120525061011092505050565b60805160a05160c05160e0516101005161012051610cfb61015f60003960006105c501526000610614015260006105ef01526000610548015260006105720152600061059c0152610cfb6000f3fe60806040526004361061004a5760003560e01c806312065fe01461004f5780632d0335ab1461007157806347153f82146100a75780635fb62ae8146100c8578063bf5d3bdb146100db575b600080fd5b34801561005b57600080fd5b50475b6040519081526020015b60405180910390f35b34801561007d57600080fd5b5061005e61008c3660046109b6565b6001600160a01b031660009081526020819052604090205490565b6100ba6100b53660046109e6565b61010b565b604051610068929190610ab5565b6100ba6100d6366004610b36565b6102a4565b3480156100e757600080fd5b506100fb6100f63660046109e6565b610345565b6040519015158152602001610068565b6000606061011a858585610345565b6101865760405162461bcd60e51b815260206004820152603260248201527f4d696e696d616c466f727761726465723a207369676e617475726520646f6573604482015271081b9bdd081b585d18da081c995c5d595cdd60721b60648201526084015b60405180910390fd5b61019560808601356001610ba2565b6000806101a560208901896109b6565b6001600160a01b03166001600160a01b03168152602001908152602001600020819055506000808660200160208101906101df91906109b6565b6001600160a01b0316606088013560408901356101ff60a08b018b610bc8565b61020c60208d018d6109b6565b60405160200161021e93929190610c0f565b60408051601f198184030181529082905261023891610c35565b600060405180830381858888f193505050503d8060008114610276576040519150601f19603f3d011682016040523d82523d6000602084013e61027b565b606091505b509092509050610290603f6060890135610c51565b5a1161029857fe5b90969095509350505050565b600060608483146102db5760405162461bcd60e51b81526020600482015260016024820152600b60fb1b604482015260640161017d565b60005b8381101561033b576103318787838181106102fb576102fb610c73565b905060200281019061030d9190610c89565b86868481811061031f5761031f610c73565b90506020028101906100b59190610bc8565b50506001016102de565b5094509492505050565b60008061045884848080601f01602080910402602001604051908101604052809392919081815260200183838082843760009201919091525061045292507fdd8f4b70b0f4393e889bd39128a30628a78b61816a9eb8199759e7a349657e4891506103b5905060208a018a6109b6565b6103c560408b0160208c016109b6565b60408b013560608c013560808d01356103e160a08f018f610bc8565b6040516103ef929190610c9f565b6040805191829003822060208301989098526001600160a01b0396871690820152949093166060850152608084019190915260a083015260c082015260e081019190915261010001604051602081830303815290604052805190602001206104c3565b90610517565b9050608085013560008061046f60208901896109b6565b6001600160a01b03166001600160a01b03168152602001908152602001600020541480156104ba57506104a560208601866109b6565b6001600160a01b0316816001600160a01b0316145b95945050505050565b60006105116104d061053b565b8360405161190160f01b6020820152602281018390526042810182905260009060620160405160208183030381529060405280519060200120905092915050565b92915050565b60008060006105268585610662565b91509150610533816106d2565b509392505050565b6000306001600160a01b037f00000000000000000000000000000000000000000000000000000000000000001614801561059457507f000000000000000000000000000000000000000000000000000000000000000046145b156105be57507f000000000000000000000000000000000000000000000000000000000000000090565b50604080517f00000000000000000000000000000000000000000000000000000000000000006020808301919091527f0000000000000000000000000000000000000000000000000000000000000000828401527f000000000000000000000000000000000000000000000000000000000000000060608301524660808301523060a0808401919091528351808403909101815260c0909201909252805191012090565b6000808251604114156106995760208301516040840151606085015160001a61068d87828585610890565b945094505050506106cb565b8251604014156106c357602083015160408401516106b886838361097d565b9350935050506106cb565b506000905060025b9250929050565b60008160048111156106e6576106e6610caf565b14156106ef5750565b600181600481111561070357610703610caf565b14156107515760405162461bcd60e51b815260206004820152601860248201527f45434453413a20696e76616c6964207369676e61747572650000000000000000604482015260640161017d565b600281600481111561076557610765610caf565b14156107b35760405162461bcd60e51b815260206004820152601f60248201527f45434453413a20696e76616c6964207369676e6174757265206c656e67746800604482015260640161017d565b60038160048111156107c7576107c7610caf565b14156108205760405162461bcd60e51b815260206004820152602260248201527f45434453413a20696e76616c6964207369676e6174757265202773272076616c604482015261756560f01b606482015260840161017d565b600481600481111561083457610834610caf565b141561088d5760405162461bcd60e51b815260206004820152602260248201527f45434453413a20696e76616c6964207369676e6174757265202776272076616c604482015261756560f01b606482015260840161017d565b50565b6000807f7fffffffffffffffffffffffffffffff5d576e7357a4501ddfe92f46681b20a08311156108c75750600090506003610974565b8460ff16601b141580156108df57508460ff16601c14155b156108f05750600090506004610974565b6040805160008082526020820180845289905260ff881692820192909252606081018690526080810185905260019060a0016020604051602081039080840390855afa158015610944573d6000803e3d6000fd5b5050604051601f1901519150506001600160a01b03811661096d57600060019250925050610974565b9150600090505b94509492505050565b6000806001600160ff1b0383168161099a60ff86901c601b610ba2565b90506109a887828885610890565b935093505050935093915050565b6000602082840312156109c857600080fd5b81356001600160a01b03811681146109df57600080fd5b9392505050565b6000806000604084860312156109fb57600080fd5b833567ffffffffffffffff80821115610a1357600080fd5b9085019060c08288031215610a2757600080fd5b90935060208501359080821115610a3d57600080fd5b818601915086601f830112610a5157600080fd5b813581811115610a6057600080fd5b876020828501011115610a7257600080fd5b6020830194508093505050509250925092565b60005b83811015610aa0578181015183820152602001610a88565b83811115610aaf576000848401525b50505050565b82151581526040602082015260008251806040840152610adc816060850160208701610a85565b601f01601f1916919091016060019392505050565b60008083601f840112610b0357600080fd5b50813567ffffffffffffffff811115610b1b57600080fd5b6020830191508360208260051b85010111156106cb57600080fd5b60008060008060408587031215610b4c57600080fd5b843567ffffffffffffffff80821115610b6457600080fd5b610b7088838901610af1565b90965094506020870135915080821115610b8957600080fd5b50610b9687828801610af1565b95989497509550505050565b60008219821115610bc357634e487b7160e01b600052601160045260246000fd5b500190565b6000808335601e19843603018112610bdf57600080fd5b83018035915067ffffffffffffffff821115610bfa57600080fd5b6020019150368190038213156106cb57600080fd5b8284823760609190911b6bffffffffffffffffffffffff19169101908152601401919050565b60008251610c47818460208701610a85565b9190910192915050565b600082610c6e57634e487b7160e01b600052601260045260246000fd5b500490565b634e487b7160e01b600052603260045260246000fd5b6000823560be19833603018112610c4757600080fd5b8183823760009101908152919050565b634e487b7160e01b600052602160045260246000fdfea26469706673582212202f74f4749ef6e39537989d633d19e0a862388b16e06a9a04732ef83c3d26dadf64736f6c63430008090033",
    "linkReferences": {},
    "deployedLinkReferences": {}
}